{
  "_format": "hh-sol-artifact-1",
  "contractName": "MyToken",
  "sourceName": "contracts/ERC721/MyToken.sol",
  "abi": [
    {
      "inputs": [],
      "stateMutability": "nonpayable",
      "type": "constructor"
    },
    {
      "anonymous": false,
      "inputs": [
        {
          "indexed": true,
          "internalType": "address",
          "name": "owner",
          "type": "address"
        },
        {
          "indexed": true,
          "internalType": "address",
          "name": "approved",
          "type": "address"
        },
        {
          "indexed": true,
          "internalType": "uint256",
          "name": "tokenId",
          "type": "uint256"
        }
      ],
      "name": "Approval",
      "type": "event"
    },
    {
      "anonymous": false,
      "inputs": [
        {
          "indexed": true,
          "internalType": "address",
          "name": "owner",
          "type": "address"
        },
        {
          "indexed": true,
          "internalType": "address",
          "name": "operator",
          "type": "address"
        },
        {
          "indexed": false,
          "internalType": "bool",
          "name": "approved",
          "type": "bool"
        }
      ],
      "name": "ApprovalForAll",
      "type": "event"
    },
    {
      "anonymous": false,
      "inputs": [
        {
          "indexed": true,
          "internalType": "address",
          "name": "from",
          "type": "address"
        },
        {
          "indexed": true,
          "internalType": "address",
          "name": "to",
          "type": "address"
        },
        {
          "indexed": true,
          "internalType": "uint256",
          "name": "tokenId",
          "type": "uint256"
        }
      ],
      "name": "Transfer",
      "type": "event"
    },
    {
      "inputs": [
        {
          "internalType": "address",
          "name": "to",
          "type": "address"
        },
        {
          "internalType": "uint256",
          "name": "tokenId",
          "type": "uint256"
        }
      ],
      "name": "approve",
      "outputs": [],
      "stateMutability": "nonpayable",
      "type": "function"
    },
    {
      "inputs": [
        {
          "internalType": "address",
          "name": "owner",
          "type": "address"
        }
      ],
      "name": "balanceOf",
      "outputs": [
        {
          "internalType": "uint256",
          "name": "",
          "type": "uint256"
        }
      ],
      "stateMutability": "view",
      "type": "function"
    },
    {
      "inputs": [
        {
          "internalType": "uint256",
          "name": "tokenId",
          "type": "uint256"
        }
      ],
      "name": "burn",
      "outputs": [],
      "stateMutability": "nonpayable",
      "type": "function"
    },
    {
      "inputs": [
        {
          "internalType": "uint256",
          "name": "tokenId",
          "type": "uint256"
        }
      ],
      "name": "getApproved",
      "outputs": [
        {
          "internalType": "address",
          "name": "",
          "type": "address"
        }
      ],
      "stateMutability": "view",
      "type": "function"
    },
    {
      "inputs": [
        {
          "internalType": "address",
          "name": "owner",
          "type": "address"
        },
        {
          "internalType": "address",
          "name": "operator",
          "type": "address"
        }
      ],
      "name": "isApprovedForAll",
      "outputs": [
        {
          "internalType": "bool",
          "name": "",
          "type": "bool"
        }
      ],
      "stateMutability": "view",
      "type": "function"
    },
    {
      "inputs": [],
      "name": "name",
      "outputs": [
        {
          "internalType": "string",
          "name": "",
          "type": "string"
        }
      ],
      "stateMutability": "view",
      "type": "function"
    },
    {
      "inputs": [],
      "name": "owner",
      "outputs": [
        {
          "internalType": "address",
          "name": "",
          "type": "address"
        }
      ],
      "stateMutability": "view",
      "type": "function"
    },
    {
      "inputs": [
        {
          "internalType": "uint256",
          "name": "tokenId",
          "type": "uint256"
        }
      ],
      "name": "ownerOf",
      "outputs": [
        {
          "internalType": "address",
          "name": "",
          "type": "address"
        }
      ],
      "stateMutability": "view",
      "type": "function"
    },
    {
      "inputs": [
        {
          "internalType": "address",
          "name": "to",
          "type": "address"
        },
        {
          "internalType": "string",
          "name": "tokenId",
          "type": "string"
        }
      ],
      "name": "safeMint",
      "outputs": [],
      "stateMutability": "nonpayable",
      "type": "function"
    },
    {
      "inputs": [
        {
          "internalType": "address",
          "name": "from",
          "type": "address"
        },
        {
          "internalType": "address",
          "name": "to",
          "type": "address"
        },
        {
          "internalType": "uint256",
          "name": "tokenId",
          "type": "uint256"
        },
        {
          "internalType": "bytes",
          "name": "data",
          "type": "bytes"
        }
      ],
      "name": "safeTransferFrom",
      "outputs": [],
      "stateMutability": "nonpayable",
      "type": "function"
    },
    {
      "inputs": [
        {
          "internalType": "address",
          "name": "operator",
          "type": "address"
        },
        {
          "internalType": "bool",
          "name": "approved",
          "type": "bool"
        }
      ],
      "name": "setApprovalForAll",
      "outputs": [],
      "stateMutability": "nonpayable",
      "type": "function"
    },
    {
      "inputs": [
        {
          "internalType": "bytes4",
          "name": "interfaceId",
          "type": "bytes4"
        }
      ],
      "name": "supportsInterface",
      "outputs": [
        {
          "internalType": "bool",
          "name": "",
          "type": "bool"
        }
      ],
      "stateMutability": "view",
      "type": "function"
    },
    {
      "inputs": [],
      "name": "symbol",
      "outputs": [
        {
          "internalType": "string",
          "name": "",
          "type": "string"
        }
      ],
      "stateMutability": "view",
      "type": "function"
    },
    {
      "inputs": [
        {
          "internalType": "uint256",
          "name": "index",
          "type": "uint256"
        }
      ],
      "name": "tokenByIndex",
      "outputs": [
        {
          "internalType": "uint256",
          "name": "",
          "type": "uint256"
        }
      ],
      "stateMutability": "view",
      "type": "function"
    },
    {
      "inputs": [
        {
          "internalType": "address",
          "name": "owner",
          "type": "address"
        },
        {
          "internalType": "uint256",
          "name": "index",
          "type": "uint256"
        }
      ],
      "name": "tokenOfOwnerByIndex",
      "outputs": [
        {
          "internalType": "uint256",
          "name": "",
          "type": "uint256"
        }
      ],
      "stateMutability": "view",
      "type": "function"
    },
    {
      "inputs": [
        {
          "internalType": "uint256",
          "name": "tokenId",
          "type": "uint256"
        }
      ],
      "name": "tokenURI",
      "outputs": [
        {
          "internalType": "string",
          "name": "",
          "type": "string"
        }
      ],
      "stateMutability": "view",
      "type": "function"
    },
    {
      "inputs": [],
      "name": "totalSupply",
      "outputs": [
        {
          "internalType": "uint256",
          "name": "",
          "type": "uint256"
        }
      ],
      "stateMutability": "view",
      "type": "function"
    },
    {
      "inputs": [
        {
          "internalType": "address",
          "name": "from",
          "type": "address"
        },
        {
          "internalType": "address",
          "name": "to",
          "type": "address"
        },
        {
          "internalType": "uint256",
          "name": "tokenId",
          "type": "uint256"
        }
      ],
      "name": "transferFrom",
      "outputs": [],
      "stateMutability": "nonpayable",
      "type": "function"
    }
  ],
  "bytecode": "0x60806040523480156200001157600080fd5b506040518060400160405280600781526020017f4d79546f6b656e000000000000000000000000000000000000000000000000008152506040518060400160405280600381526020017f4d544b000000000000000000000000000000000000000000000000000000000081525081600090816200008f919062000365565b508060019081620000a1919062000365565b50505033600b60006101000a81548173ffffffffffffffffffffffffffffffffffffffff021916908373ffffffffffffffffffffffffffffffffffffffff1602179055506200044c565b600081519050919050565b7f4e487b7100000000000000000000000000000000000000000000000000000000600052604160045260246000fd5b7f4e487b7100000000000000000000000000000000000000000000000000000000600052602260045260246000fd5b600060028204905060018216806200016d57607f821691505b60208210810362000183576200018262000125565b5b50919050565b60008190508160005260206000209050919050565b60006020601f8301049050919050565b600082821b905092915050565b600060088302620001ed7fffffffffffffffffffffffffffffffffffffffffffffffffffffffffffffffff82620001ae565b620001f98683620001ae565b95508019841693508086168417925050509392505050565b6000819050919050565b6000819050919050565b600062000246620002406200023a8462000211565b6200021b565b62000211565b9050919050565b6000819050919050565b620002628362000225565b6200027a62000271826200024d565b848454620001bb565b825550505050565b600090565b6200029162000282565b6200029e81848462000257565b505050565b5b81811015620002c657620002ba60008262000287565b600181019050620002a4565b5050565b601f8211156200031557620002df8162000189565b620002ea846200019e565b81016020851015620002fa578190505b6200031262000309856200019e565b830182620002a3565b50505b505050565b600082821c905092915050565b60006200033a600019846008026200031a565b1980831691505092915050565b600062000355838362000327565b9150826002028217905092915050565b6200037082620000eb565b67ffffffffffffffff8111156200038c576200038b620000f6565b5b62000398825462000154565b620003a5828285620002ca565b600060209050601f831160018114620003dd5760008415620003c8578287015190505b620003d4858262000347565b86555062000444565b601f198416620003ed8662000189565b60005b828110156200041757848901518255600182019150602085019450602081019050620003f0565b8683101562000437578489015162000433601f89168262000327565b8355505b6001600288020188555050505b505050505050565b613435806200045c6000396000f3fe608060405234801561001057600080fd5b50600436106101165760003560e01c80636352211e116100a2578063a22cb46511610071578063a22cb46514610307578063b88d4fde14610323578063c87b56dd1461033f578063d204c45e1461036f578063e985e9c51461038b57610116565b80636352211e1461026b57806370a082311461029b5780638da5cb5b146102cb57806395d89b41146102e957610116565b806318160ddd116100e957806318160ddd146101b557806323b872dd146101d35780632f745c59146101ef57806342966c681461021f5780634f6ccce71461023b57610116565b806301ffc9a71461011b57806306fdde031461014b578063081812fc14610169578063095ea7b314610199575b600080fd5b610135600480360381019061013091906121f1565b6103bb565b6040516101429190612239565b60405180910390f35b6101536103cd565b60405161016091906122e4565b60405180910390f35b610183600480360381019061017e919061233c565b61045f565b60405161019091906123aa565b60405180910390f35b6101b360048036038101906101ae91906123f1565b6104e6565b005b6101bd610692565b6040516101ca9190612440565b60405180910390f35b6101ed60048036038101906101e8919061245b565b61069f565b005b610209600480360381019061020491906123f1565b6106f8565b6040516102169190612440565b60405180910390f35b6102396004803603810190610234919061233c565b61079d565b005b6102556004803603810190610250919061233c565b6107f2565b6040516102629190612440565b60405180910390f35b6102856004803603810190610280919061233c565b610863565b60405161029291906123aa565b60405180910390f35b6102b560048036038101906102b091906124ae565b6108ea565b6040516102c29190612440565b60405180910390f35b6102d36109a1565b6040516102e091906123aa565b60405180910390f35b6102f16109c7565b6040516102fe91906122e4565b60405180910390f35b610321600480360381019061031c9190612507565b610a59565b005b61033d6004803603810190610338919061267c565b610bc4565b005b6103596004803603810190610354919061233c565b610c1f565b60405161036691906122e4565b60405180910390f35b6103896004803603810190610384919061275f565b610c31565b005b6103a560048036038101906103a091906127bf565b610d3a565b6040516103b29190612239565b60405180910390f35b60006103c682610dce565b9050919050565b6060600080546103dc9061282e565b80601f01602080910402602001604051908101604052809291908181526020018280546104089061282e565b80156104555780601f1061042a57610100808354040283529160200191610455565b820191906000526020600020905b81548152906001019060200180831161043857829003601f168201915b5050505050905090565b60008161046b81610e48565b6104aa576040517f08c379a00000000000000000000000000000000000000000000000000000000081526004016104a1906128ab565b60405180910390fd5b6004600084815260200190815260200160002060009054906101000a900473ffffffffffffffffffffffffffffffffffffffff16915050919050565b60006104f182610863565b90503373ffffffffffffffffffffffffffffffffffffffff168173ffffffffffffffffffffffffffffffffffffffff16148061053357506105328133610d3a565b5b610572576040517f08c379a000000000000000000000000000000000000000000000000000000000815260040161056990612917565b60405180910390fd5b8073ffffffffffffffffffffffffffffffffffffffff168373ffffffffffffffffffffffffffffffffffffffff16036105e0576040517f08c379a00000000000000000000000000000000000000000000000000000000081526004016105d790612983565b60405180910390fd5b826004600084815260200190815260200160002060006101000a81548173ffffffffffffffffffffffffffffffffffffffff021916908373ffffffffffffffffffffffffffffffffffffffff160217905550818373ffffffffffffffffffffffffffffffffffffffff168273ffffffffffffffffffffffffffffffffffffffff167f8c5be1e5ebec7d5bd14f71427d1e84f3dd0314c0f7b2291e5b200ac8c7c3b92560405160405180910390a4505050565b6000600680549050905090565b6106a93382610eb4565b6106e8576040517f08c379a00000000000000000000000000000000000000000000000000000000081526004016106df906129ef565b60405180910390fd5b6106f3838383610f49565b505050565b6000610703836108ea565b8210610744576040517f08c379a000000000000000000000000000000000000000000000000000000000815260040161073b90612a5b565b60405180910390fd5b600760008473ffffffffffffffffffffffffffffffffffffffff1673ffffffffffffffffffffffffffffffffffffffff168152602001908152602001600020600083815260200190815260200160002054905092915050565b6107a73382610eb4565b6107e6576040517f08c379a00000000000000000000000000000000000000000000000000000000081526004016107dd90612ac7565b60405180910390fd5b6107ef816111d6565b50565b60006107fc610692565b821061083d576040517f08c379a000000000000000000000000000000000000000000000000000000000815260040161083490612a5b565b60405180910390fd5b6006828154811061085157610850612ae7565b5b90600052602060002001549050919050565b60008161086f81610e48565b6108ae576040517f08c379a00000000000000000000000000000000000000000000000000000000081526004016108a5906128ab565b60405180910390fd5b6003600084815260200190815260200160002060009054906101000a900473ffffffffffffffffffffffffffffffffffffffff16915050919050565b60008073ffffffffffffffffffffffffffffffffffffffff168273ffffffffffffffffffffffffffffffffffffffff160361095a576040517f08c379a000000000000000000000000000000000000000000000000000000000815260040161095190612b62565b60405180910390fd5b600260008373ffffffffffffffffffffffffffffffffffffffff1673ffffffffffffffffffffffffffffffffffffffff168152602001908152602001600020549050919050565b600b60009054906101000a900473ffffffffffffffffffffffffffffffffffffffff1681565b6060600180546109d69061282e565b80601f0160208091040260200160405190810160405280929190818152602001828054610a029061282e565b8015610a4f5780601f10610a2457610100808354040283529160200191610a4f565b820191906000526020600020905b815481529060010190602001808311610a3257829003601f168201915b5050505050905090565b8173ffffffffffffffffffffffffffffffffffffffff163373ffffffffffffffffffffffffffffffffffffffff1603610ac7576040517f08c379a0000000000000000000000000000000000000000000000000000000008152600401610abe90612983565b60405180910390fd5b80600560003373ffffffffffffffffffffffffffffffffffffffff1673ffffffffffffffffffffffffffffffffffffffff16815260200190815260200160002060008473ffffffffffffffffffffffffffffffffffffffff1673ffffffffffffffffffffffffffffffffffffffff16815260200190815260200160002060006101000a81548160ff0219169083151502179055508173ffffffffffffffffffffffffffffffffffffffff163373ffffffffffffffffffffffffffffffffffffffff167f17307eab39ab6107e8899845ad3d59bd9653f200f220920489ca2b5937696c3183604051610bb89190612239565b60405180910390a35050565b610bce3383610eb4565b610c0d576040517f08c379a0000000000000000000000000000000000000000000000000000000008152600401610c0490612ac7565b60405180910390fd5b610c19848484846111e2565b50505050565b6060610c2a8261123e565b9050919050565b3373ffffffffffffffffffffffffffffffffffffffff16600b60009054906101000a900473ffffffffffffffffffffffffffffffffffffffff1673ffffffffffffffffffffffffffffffffffffffff1614610cc1576040517f08c379a0000000000000000000000000000000000000000000000000000000008152600401610cb890612917565b60405180910390fd5b610ccd83600c54611391565b610d1d600c5483838080601f016020809104026020016040519081016040528093929190818152602001838380828437600081840152601f19601f820116905080830192505050505050506113af565b600c6000815480929190610d3090612bb1565b9190505550505050565b6000600560008473ffffffffffffffffffffffffffffffffffffffff1673ffffffffffffffffffffffffffffffffffffffff16815260200190815260200160002060008373ffffffffffffffffffffffffffffffffffffffff1673ffffffffffffffffffffffffffffffffffffffff16815260200190815260200160002060009054906101000a900460ff16905092915050565b60007f780e9d63000000000000000000000000000000000000000000000000000000007bffffffffffffffffffffffffffffffffffffffffffffffffffffffff1916827bffffffffffffffffffffffffffffffffffffffffffffffffffffffff19161480610e415750610e408261141e565b5b9050919050565b60008073ffffffffffffffffffffffffffffffffffffffff166003600084815260200190815260200160002060009054906101000a900473ffffffffffffffffffffffffffffffffffffffff1673ffffffffffffffffffffffffffffffffffffffff1614159050919050565b600080610ec083610863565b90508073ffffffffffffffffffffffffffffffffffffffff168473ffffffffffffffffffffffffffffffffffffffff161480610f025750610f018185610d3a565b5b80610f4057508373ffffffffffffffffffffffffffffffffffffffff16610f288461045f565b73ffffffffffffffffffffffffffffffffffffffff16145b91505092915050565b8273ffffffffffffffffffffffffffffffffffffffff16610f6982610863565b73ffffffffffffffffffffffffffffffffffffffff1614610fbf576040517f08c379a0000000000000000000000000000000000000000000000000000000008152600401610fb690612c45565b60405180910390fd5b600073ffffffffffffffffffffffffffffffffffffffff168273ffffffffffffffffffffffffffffffffffffffff160361102e576040517f08c379a000000000000000000000000000000000000000000000000000000000815260040161102590612cb1565b60405180910390fd5b611039838383611500565b6004600082815260200190815260200160002060006101000a81549073ffffffffffffffffffffffffffffffffffffffff0219169055600260008473ffffffffffffffffffffffffffffffffffffffff1673ffffffffffffffffffffffffffffffffffffffff16815260200190815260200160002060008154809291906110bf90612cd1565b9190505550600260008373ffffffffffffffffffffffffffffffffffffffff1673ffffffffffffffffffffffffffffffffffffffff168152602001908152602001600020600081548092919061111490612bb1565b9190505550816003600083815260200190815260200160002060006101000a81548173ffffffffffffffffffffffffffffffffffffffff021916908373ffffffffffffffffffffffffffffffffffffffff160217905550808273ffffffffffffffffffffffffffffffffffffffff168473ffffffffffffffffffffffffffffffffffffffff167fddf252ad1be2c89b69c2b068fc378daa952ba7f163c4a11628f55a4df523b3ef60405160405180910390a46111d1838383611510565b505050565b6111df81611515565b50565b6111ed848484610f49565b6111f984848484611568565b611238576040517f08c379a000000000000000000000000000000000000000000000000000000000815260040161122f90612d46565b60405180910390fd5b50505050565b60608161124a81610e48565b611289576040517f08c379a0000000000000000000000000000000000000000000000000000000008152600401611280906128ab565b60405180910390fd5b6000600a600085815260200190815260200160002080546112a99061282e565b80601f01602080910402602001604051908101604052809291908181526020018280546112d59061282e565b80156113225780601f106112f757610100808354040283529160200191611322565b820191906000526020600020905b81548152906001019060200180831161130557829003601f168201915b5050505050905060006113336116e3565b9050600081510361134857819350505061138b565b60008251111561137d578082604051602001611365929190612da2565b6040516020818303038152906040529350505061138b565b61138685611720565b935050505b50919050565b6113ab8282604051806020016040528060008152506117c9565b5050565b816113b981610e48565b6113f8576040517f08c379a00000000000000000000000000000000000000000000000000000000081526004016113ef906128ab565b60405180910390fd5b81600a600085815260200190815260200160002090816114189190612f72565b50505050565b60007fc22876c3000000000000000000000000000000000000000000000000000000007bffffffffffffffffffffffffffffffffffffffffffffffffffffffff1916827bffffffffffffffffffffffffffffffffffffffffffffffffffffffff191614806114e957507f5b5e139f000000000000000000000000000000000000000000000000000000007bffffffffffffffffffffffffffffffffffffffffffffffffffffffff1916827bffffffffffffffffffffffffffffffffffffffffffffffffffffffff1916145b806114f957506114f882611824565b5b9050919050565b61150b83838361188e565b505050565b505050565b61151e816119a0565b6000600a6000838152602001908152602001600020805461153e9061282e565b90501461156557600a600082815260200190815260200160002060006115649190612128565b5b50565b6000808473ffffffffffffffffffffffffffffffffffffffff163b11156116d6578373ffffffffffffffffffffffffffffffffffffffff1663150b7a02338786866040518563ffffffff1660e01b81526004016115c89493929190613099565b6020604051808303816000875af192505050801561160457506040513d601f19601f8201168201806040525081019061160191906130fa565b60015b611686573d8060008114611634576040519150601f19603f3d011682016040523d82523d6000602084013e611639565b606091505b50600081510361167e576040517f08c379a000000000000000000000000000000000000000000000000000000000815260040161167590613173565b60405180910390fd5b805181602001fd5b63150b7a0260e01b7bffffffffffffffffffffffffffffffffffffffffffffffffffffffff1916817bffffffffffffffffffffffffffffffffffffffffffffffffffffffff1916149150506116db565b600190505b949350505050565b60606040518060400160405280600781526020017f697066733a2f2f00000000000000000000000000000000000000000000000000815250905090565b60608161172c81610e48565b61176b576040517f08c379a0000000000000000000000000000000000000000000000000000000008152600401611762906128ab565b60405180910390fd5b60006117756116e3565b9050600081511161179557604051806020016040528060008152506117c0565b8061179f85611ae6565b6040516020016117b0929190612da2565b6040516020818303038152906040525b92505050919050565b6117d38383611c46565b6117e06000848484611568565b61181f576040517f08c379a0000000000000000000000000000000000000000000000000000000008152600401611816906131df565b60405180910390fd5b505050565b60007f01ffc9a7000000000000000000000000000000000000000000000000000000007bffffffffffffffffffffffffffffffffffffffffffffffffffffffff1916827bffffffffffffffffffffffffffffffffffffffffffffffffffffffff1916149050919050565b611899838383611e1d565b600073ffffffffffffffffffffffffffffffffffffffff168373ffffffffffffffffffffffffffffffffffffffff16036118db576118d681611e22565b61191a565b8173ffffffffffffffffffffffffffffffffffffffff168373ffffffffffffffffffffffffffffffffffffffff1614611919576119188382611e6b565b5b5b600073ffffffffffffffffffffffffffffffffffffffff168273ffffffffffffffffffffffffffffffffffffffff160361195c5761195781611fd8565b61199b565b8273ffffffffffffffffffffffffffffffffffffffff168273ffffffffffffffffffffffffffffffffffffffff161461199a5761199982826120a9565b5b5b505050565b60006119ab82610863565b90506119b981600084611500565b6004600083815260200190815260200160002060006101000a81549073ffffffffffffffffffffffffffffffffffffffff0219169055600260008273ffffffffffffffffffffffffffffffffffffffff1673ffffffffffffffffffffffffffffffffffffffff1681526020019081526020016000206000815480929190611a3f90612cd1565b91905055506003600083815260200190815260200160002060006101000a81549073ffffffffffffffffffffffffffffffffffffffff021916905581600073ffffffffffffffffffffffffffffffffffffffff168273ffffffffffffffffffffffffffffffffffffffff167fddf252ad1be2c89b69c2b068fc378daa952ba7f163c4a11628f55a4df523b3ef60405160405180910390a4611ae281600084611510565b5050565b606060008203611b2d576040518060400160405280600181526020017f30000000000000000000000000000000000000000000000000000000000000008152509050611c41565b600082905060005b60008214611b5f578080611b4890612bb1565b915050600a82611b58919061322e565b9150611b35565b60008167ffffffffffffffff811115611b7b57611b7a612551565b5b6040519080825280601f01601f191660200182016040528015611bad5781602001600182028036833780820191505090505b5090505b60008514611c3a57600182611bc6919061325f565b9150600a85611bd59190613293565b6030611be191906132c4565b60f81b818381518110611bf757611bf6612ae7565b5b60200101907effffffffffffffffffffffffffffffffffffffffffffffffffffffffffffff1916908160001a905350600a85611c33919061322e565b9450611bb1565b8093505050505b919050565b600073ffffffffffffffffffffffffffffffffffffffff168273ffffffffffffffffffffffffffffffffffffffff1603611cb5576040517f08c379a0000000000000000000000000000000000000000000000000000000008152600401611cac90613344565b60405180910390fd5b611cbe81610e48565b15611cfe576040517f08c379a0000000000000000000000000000000000000000000000000000000008152600401611cf5906133b0565b60405180910390fd5b611d0a60008383611500565b816003600083815260200190815260200160002060006101000a81548173ffffffffffffffffffffffffffffffffffffffff021916908373ffffffffffffffffffffffffffffffffffffffff160217905550600260008373ffffffffffffffffffffffffffffffffffffffff1673ffffffffffffffffffffffffffffffffffffffff1681526020019081526020016000206000815480929190611dac90612bb1565b9190505550808273ffffffffffffffffffffffffffffffffffffffff16600073ffffffffffffffffffffffffffffffffffffffff167fddf252ad1be2c89b69c2b068fc378daa952ba7f163c4a11628f55a4df523b3ef60405160405180910390a4611e1960008383611510565b5050565b505050565b6006805490506008600083815260200190815260200160002081905550600681908060018154018082558091505060019003906000526020600020016000909190919091505550565b60006001611e78846108ea565b611e82919061325f565b9050600060096000848152602001908152602001600020549050818114611f67576000600760008673ffffffffffffffffffffffffffffffffffffffff1673ffffffffffffffffffffffffffffffffffffffff168152602001908152602001600020600084815260200190815260200160002054905080600760008773ffffffffffffffffffffffffffffffffffffffff1673ffffffffffffffffffffffffffffffffffffffff168152602001908152602001600020600084815260200190815260200160002081905550816009600083815260200190815260200160002081905550505b6009600084815260200190815260200160002060009055600760008573ffffffffffffffffffffffffffffffffffffffff1673ffffffffffffffffffffffffffffffffffffffff16815260200190815260200160002060008381526020019081526020016000206000905550505050565b60006001600680549050611fec919061325f565b905060006008600084815260200190815260200160002054905060006006838154811061201c5761201b612ae7565b5b90600052602060002001549050806006838154811061203e5761203d612ae7565b5b90600052602060002001819055508160086000838152602001908152602001600020819055506008600085815260200190815260200160002060009055600680548061208d5761208c6133d0565b5b6001900381819060005260206000200160009055905550505050565b60006120b4836108ea565b905080600960008481526020019081526020016000208190555081600760008573ffffffffffffffffffffffffffffffffffffffff1673ffffffffffffffffffffffffffffffffffffffff168152602001908152602001600020600083815260200190815260200160002081905550505050565b5080546121349061282e565b6000825580601f106121465750612165565b601f0160209004906000526020600020908101906121649190612168565b5b50565b5b80821115612181576000816000905550600101612169565b5090565b6000604051905090565b600080fd5b600080fd5b60007fffffffff0000000000000000000000000000000000000000000000000000000082169050919050565b6121ce81612199565b81146121d957600080fd5b50565b6000813590506121eb816121c5565b92915050565b6000602082840312156122075761220661218f565b5b6000612215848285016121dc565b91505092915050565b60008115159050919050565b6122338161221e565b82525050565b600060208201905061224e600083018461222a565b92915050565b600081519050919050565b600082825260208201905092915050565b60005b8381101561228e578082015181840152602081019050612273565b60008484015250505050565b6000601f19601f8301169050919050565b60006122b682612254565b6122c0818561225f565b93506122d0818560208601612270565b6122d98161229a565b840191505092915050565b600060208201905081810360008301526122fe81846122ab565b905092915050565b6000819050919050565b61231981612306565b811461232457600080fd5b50565b60008135905061233681612310565b92915050565b6000602082840312156123525761235161218f565b5b600061236084828501612327565b91505092915050565b600073ffffffffffffffffffffffffffffffffffffffff82169050919050565b600061239482612369565b9050919050565b6123a481612389565b82525050565b60006020820190506123bf600083018461239b565b92915050565b6123ce81612389565b81146123d957600080fd5b50565b6000813590506123eb816123c5565b92915050565b600080604083850312156124085761240761218f565b5b6000612416858286016123dc565b925050602061242785828601612327565b9150509250929050565b61243a81612306565b82525050565b60006020820190506124556000830184612431565b92915050565b6000806000606084860312156124745761247361218f565b5b6000612482868287016123dc565b9350506020612493868287016123dc565b92505060406124a486828701612327565b9150509250925092565b6000602082840312156124c4576124c361218f565b5b60006124d2848285016123dc565b91505092915050565b6124e48161221e565b81146124ef57600080fd5b50565b600081359050612501816124db565b92915050565b6000806040838503121561251e5761251d61218f565b5b600061252c858286016123dc565b925050602061253d858286016124f2565b9150509250929050565b600080fd5b600080fd5b7f4e487b7100000000000000000000000000000000000000000000000000000000600052604160045260246000fd5b6125898261229a565b810181811067ffffffffffffffff821117156125a8576125a7612551565b5b80604052505050565b60006125bb612185565b90506125c78282612580565b919050565b600067ffffffffffffffff8211156125e7576125e6612551565b5b6125f08261229a565b9050602081019050919050565b82818337600083830152505050565b600061261f61261a846125cc565b6125b1565b90508281526020810184848401111561263b5761263a61254c565b5b6126468482856125fd565b509392505050565b600082601f83011261266357612662612547565b5b813561267384826020860161260c565b91505092915050565b600080600080608085870312156126965761269561218f565b5b60006126a4878288016123dc565b94505060206126b5878288016123dc565b93505060406126c687828801612327565b925050606085013567ffffffffffffffff8111156126e7576126e6612194565b5b6126f38782880161264e565b91505092959194509250565b600080fd5b600080fd5b60008083601f84011261271f5761271e612547565b5b8235905067ffffffffffffffff81111561273c5761273b6126ff565b5b60208301915083600182028301111561275857612757612704565b5b9250929050565b6000806000604084860312156127785761277761218f565b5b6000612786868287016123dc565b935050602084013567ffffffffffffffff8111156127a7576127a6612194565b5b6127b386828701612709565b92509250509250925092565b600080604083850312156127d6576127d561218f565b5b60006127e4858286016123dc565b92505060206127f5858286016123dc565b9150509250929050565b7f4e487b7100000000000000000000000000000000000000000000000000000000600052602260045260246000fd5b6000600282049050600182168061284657607f821691505b602082108103612859576128586127ff565b5b50919050565b7f6e6f74206d696e74656421000000000000000000000000000000000000000000600082015250565b6000612895600b8361225f565b91506128a08261285f565b602082019050919050565b600060208201905081810360008301526128c481612888565b9050919050565b7f6e6f7420616e206f776e65722100000000000000000000000000000000000000600082015250565b6000612901600d8361225f565b915061290c826128cb565b602082019050919050565b60006020820190508181036000830152612930816128f4565b9050919050565b7f63616e6e6f7420617070726f766520746f2073656c6600000000000000000000600082015250565b600061296d60168361225f565b915061297882612937565b602082019050919050565b6000602082019050818103600083015261299c81612960565b9050919050565b7f6e6f7420617070726f766564206f72206f776e65722100000000000000000000600082015250565b60006129d960168361225f565b91506129e4826129a3565b602082019050919050565b60006020820190508181036000830152612a08816129cc565b9050919050565b7f6f7574206f6620626f6e64730000000000000000000000000000000000000000600082015250565b6000612a45600c8361225f565b9150612a5082612a0f565b602082019050919050565b60006020820190508181036000830152612a7481612a38565b9050919050565b7f6e6f74206f776e65722100000000000000000000000000000000000000000000600082015250565b6000612ab1600a8361225f565b9150612abc82612a7b565b602082019050919050565b60006020820190508181036000830152612ae081612aa4565b9050919050565b7f4e487b7100000000000000000000000000000000000000000000000000000000600052603260045260246000fd5b7f6f776e65722063616e6e6f74206265207a65726f000000000000000000000000600082015250565b6000612b4c60148361225f565b9150612b5782612b16565b602082019050919050565b60006020820190508181036000830152612b7b81612b3f565b9050919050565b7f4e487b7100000000000000000000000000000000000000000000000000000000600052601160045260246000fd5b6000612bbc82612306565b91507fffffffffffffffffffffffffffffffffffffffffffffffffffffffffffffffff8203612bee57612bed612b82565b5b600182019050919050565b7f696e636f7272656374206f776e65722100000000000000000000000000000000600082015250565b6000612c2f60108361225f565b9150612c3a82612bf9565b602082019050919050565b60006020820190508181036000830152612c5e81612c22565b9050919050565b7f746f2061646472657373206973207a65726f2100000000000000000000000000600082015250565b6000612c9b60138361225f565b9150612ca682612c65565b602082019050919050565b60006020820190508181036000830152612cca81612c8e565b9050919050565b6000612cdc82612306565b915060008203612cef57612cee612b82565b5b600182039050919050565b7f7472616e7366657220746f206e6f6e2d65726337323120726563656976657200600082015250565b6000612d30601f8361225f565b9150612d3b82612cfa565b602082019050919050565b60006020820190508181036000830152612d5f81612d23565b9050919050565b600081905092915050565b6000612d7c82612254565b612d868185612d66565b9350612d96818560208601612270565b80840191505092915050565b6000612dae8285612d71565b9150612dba8284612d71565b91508190509392505050565b60008190508160005260206000209050919050565b60006020601f8301049050919050565b600082821b905092915050565b600060088302612e287fffffffffffffffffffffffffffffffffffffffffffffffffffffffffffffffff82612deb565b612e328683612deb565b95508019841693508086168417925050509392505050565b6000819050919050565b6000612e6f612e6a612e6584612306565b612e4a565b612306565b9050919050565b6000819050919050565b612e8983612e54565b612e9d612e9582612e76565b848454612df8565b825550505050565b600090565b612eb2612ea5565b612ebd818484612e80565b505050565b5b81811015612ee157612ed6600082612eaa565b600181019050612ec3565b5050565b601f821115612f2657612ef781612dc6565b612f0084612ddb565b81016020851015612f0f578190505b612f23612f1b85612ddb565b830182612ec2565b50505b505050565b600082821c905092915050565b6000612f4960001984600802612f2b565b1980831691505092915050565b6000612f628383612f38565b9150826002028217905092915050565b612f7b82612254565b67ffffffffffffffff811115612f9457612f93612551565b5b612f9e825461282e565b612fa9828285612ee5565b600060209050601f831160018114612fdc5760008415612fca578287015190505b612fd48582612f56565b86555061303c565b601f198416612fea86612dc6565b60005b8281101561301257848901518255600182019150602085019450602081019050612fed565b8683101561302f578489015161302b601f891682612f38565b8355505b6001600288020188555050505b505050505050565b600081519050919050565b600082825260208201905092915050565b600061306b82613044565b613075818561304f565b9350613085818560208601612270565b61308e8161229a565b840191505092915050565b60006080820190506130ae600083018761239b565b6130bb602083018661239b565b6130c86040830185612431565b81810360608301526130da8184613060565b905095945050505050565b6000815190506130f4816121c5565b92915050565b6000602082840312156131105761310f61218f565b5b600061311e848285016130e5565b91505092915050565b7f5472616e7366657220746f206e6f6e2d65726337323120726563656976657200600082015250565b600061315d601f8361225f565b915061316882613127565b602082019050919050565b6000602082019050818103600083015261318c81613150565b9050919050565b7f6e6f6e2d65726337323120726563656976657200000000000000000000000000600082015250565b60006131c960138361225f565b91506131d482613193565b602082019050919050565b600060208201905081810360008301526131f8816131bc565b9050919050565b7f4e487b7100000000000000000000000000000000000000000000000000000000600052601260045260246000fd5b600061323982612306565b915061324483612306565b925082613254576132536131ff565b5b828204905092915050565b600061326a82612306565b915061327583612306565b925082820390508181111561328d5761328c612b82565b5b92915050565b600061329e82612306565b91506132a983612306565b9250826132b9576132b86131ff565b5b828206905092915050565b60006132cf82612306565b91506132da83612306565b92508282019050808211156132f2576132f1612b82565b5b92915050565b7f7a65726f206164647265737320746f0000000000000000000000000000000000600082015250565b600061332e600f8361225f565b9150613339826132f8565b602082019050919050565b6000602082019050818103600083015261335d81613321565b9050919050565b7f7468697320746f6b656e20696420697320616c7265616479206d696e74656400600082015250565b600061339a601f8361225f565b91506133a582613364565b602082019050919050565b600060208201905081810360008301526133c98161338d565b9050919050565b7f4e487b7100000000000000000000000000000000000000000000000000000000600052603160045260246000fdfea2646970667358221220401de2396769e5ec031d95213175448b7cce26741d8c4115eecc37ec530785a964736f6c63430008120033",
  "linkReferences": {},
  "deployedLinkReferences": {}
}